S012000044485431315F554152542E7372656335
S11300000C942A000C9447000C9447000C9447006D
S11300100C9447000C9447000C9447000C94470040
S11300200C9447000C94C4010C9447000C944700B2
S11300300C9447000C9447000C9447000C94470020
S11300400C9447000C9447000C9447000C94470010
S11300500C94470011241FBECFE5D4E0DEBFCDBF12
S113006010E0A0E6B0E0E6EDF9E002C005900D92E4
S1130070AA36B107D9F720E0AAE6B0E001C01D9284
S1130080AC38B207E1F70E9479010C94E9040C94AE
S1130090000087B38E7F87BBB099FECFB09BFECFA5
S11300A0B099FECF80E090E00895CF93DF93CDB771
S11300B0DEB72C970FB6F894DEBF0FBECDBF86E037
S11300C0E0E6F0E0DE01179601900D928A95E1F7E3
S11300D086E0FE013796DE01119601900D928A9515
S11300E0E1F729813A814B815C816D817E8180E0D9
S11300F090E02C960FB6F894DEBF0FBECDBFDF9113
S1130100CF91089587B3816087BB88B38E7F88BB06
S11301108FE39CE90197F1F700C0000088B3816088
S113012088BB9AE69A95F1F700C008952FEF89E607
S113013098E1215080409040E1F700C0000008950C
S1130140CF93DF93CDB7DEB72B970FB6F894DEBF0E
S11301500FBECDBF2FE788E391E02150804090404F
S1130160E1F700C00000FE01379685E0DF011D9233
S11301708A95E9F70E9482000E944900019609F0DD
S113018050C00E94550020936C0030936D00409342
S11301906E0050936F00609370007093710086E05E
S11301A0ECE6F0E0DE01119601900D928A95E1F7FC
S11301B050C0B09BFECF20E52A95F1F7B09B09C053
S11301C02091720030E0220F331F216020937200CF
S11301D005C020917200220F20937200B099FECFC7
S11301E08730910529F4209172002F8310927200B8
S11301F08F30910511F4109272008731910529F422
S1130200209172002987109272008F31910511F4A8
S1130210109272008133910511F4109272000196CC
S113022002C080E090E0883291051CF2ECE6F0E038
S113023011821082898590E0938382838F8190E07C
S11302409583848386E0DE01119601900D928A9550
S1130250E1F729813A814B815C816D817E8180E067
S113026090E02B960FB6F894DEBF0FBECDBFDF91A2
S1130270CF910895DC01CB01880F991FAA1FBB1FE2
S1130280880F991FAA1FBB1F9C01AD01220F331FAA
S1130290441F551F220F331F441F551F60E072E196
S11302A08AE790E00E94DD018FEF820F89B9DA01BD
S11302B0C9010197A109B109892F9A2FAB2FBB2737
S11302C080BD1BB88AB188608AB980B5866880BD54
S11302D00895AC0120E030E005C05D9BFECF9CB9E1
S11302E02F5F3F4FFA01E20FF31F90819111F5CF79
S11302F00895CF93DF9300D000D000D0CDB7DEB700
S11303000E94960083B7836083BF82E882BF89B767
S1130310816089BF789460E875E280E090E00E9493
S11303203A012FE788E391E0215080409040E1F7C3
S113033000C0000080916A0090916B008031974268
S1130340C8F30E94A00029833A834B835C836D83A6
S11303507E835F934F9386E690E09F938F9383E72A
S113036090E09F938F930E94FF0183E790E00E94A7
S1130370690110926B0010926A000F900F900F9019
S11303800F900F900F90D6CF1F920F920FB60F922F
S113039011248F939F9382E882BF80916A00909189
S11303A06B00019690936B0080936A009F918F91EC
S11303B00F900FBE0F901F901895A1E21A2EAA1B42
S11303C0BB1BFD010DC0AA1FBB1FEE1FFF1FA21701
S11303D0B307E407F50720F0A21BB30BE40BF50BFE
S11303E0661F771F881F991F1A9469F76095709587
S11303F0809590959B01AC01BD01CF010895AEE0BD
S1130400B0E0E5E0F2E00C94C0040D891E8986E0BA
S11304108C831A8309838FEF9FE79E838D83AE01BC
S1130420475E5F4F6F89788DCE0101960E9421024D
S1130430EF81F885E00FF11F10822E96E4E00C9412
S1130440DC04ABE0B0E0E7E2F2E00C94B2046C014F
S11304507B018A01FC0117821682838181FFCCC152
S1130460CE0101963C01F6019381F70193FD85913C
S113047093FF81917F01882309F4BAC1853239F44D
S113048093FD859193FF81917F01853229F4B60113
S113049090E00E941804E7CF912C212C312CFFE12D
S11304A0F315D8F08B3279F038F4803279F0833256
S11304B0A1F4232D20611DC08D3261F0803369F4D5
S11304C0232D216016C0832D8260382EE32DE46035
S11304D03E2E2AC0F32DF8601DC037FC2DC020ED40
S11304E0280F2A3040F08E32B9F436FC81C1232D16
S11304F02064322E19C036FE06C08AE0989E200D74
S11305001124922E11C0EAE02E9E200D1124222ED9
S1130510F32DF0623F2E08C08C3621F4832D8068C1
S1130520382E02C0883641F4F70193FD859193FF7C
S113053081917F018111B3CF982F9F7D9554933082
S113054028F40C5F1F4F9FE399830DC0833631F06D
S1130550833771F0833509F059C021C0F8018081D7
S113056089830E5F1F4F88248394912C530113C0F9
S11305702801F2E04F0E511CF801A080B18036FE34
S113058003C0692D70E002C06FEF7FEFC5010E94C8
S11305900D044C018201F32DFF773F2E16C0280174
S11305A022E0420E511CF801A080B18036FE03C047
S11305B0692D70E002C06FEF7FEFC5010E94020455
S11305C04C01F32DF0683F2E820133FC1BC0822DB9
S11305D090E088169906B0F4B60180E290E00E949B
S11305E018042A94F4CFF50137FC859137FE8191E4
S11305F05F01B60190E00E94180421102A9421E0C2
S1130600821A91088114910471F7E8C0843611F0BC
S1130610893641F5F80137FE07C060817181828116
S113062093810C5F1F4F08C060817181072E000CFD
S1130630880B990B0E5F1F4FF32DFF763F2E97FF0C
S113064009C090958095709561957F4F8F4F9F4F0E
S1130650F0683F2E2AE030E0A3010E945404882E63
S1130660861845C0853731F4232D2F7EB22E2AE01B
S113067030E025C0932D997FB92E8F36C1F018F440
S1130680883579F0B5C0803719F0883721F0B0C0CB
S1130690E92FE061BE2EB4FE0DC0FB2DF460BF2E29
S11306A009C034FE0AC0292F2660B22E06C028E0F5
S11306B030E005C020E130E002C020E132E0F80182
S11306C0B7FE07C060817181828193810C5F1F4FE7
S11306D006C06081718180E090E00E5F1F4FA3012E
S11306E00E945404882E8618FB2DFF773F2E36FE79
S11306F00DC0232D2E7FA22E891458F434FE0BC076
S113070032FC09C0832D8E7EA82E05C0B82CA32CE4
S113071003C0B82C01C0B92CA4FE0FC0FE01E80D23
S1130720F11D8081803321F49A2D997EA92E09C070
S1130730A2FE06C0B394B39404C08A2D867809F04F
S1130740B394A3FC11C0A0FE06C0B21488F4280C14
S1130750922C9B180EC0B21460F4B60180E290E0B3
S11307600E941804B394F7CFB21418F42B1802C0E3
S1130770982C212CA4FE10C0B60180E390E00E94C6
S11307801804A2FE17C0A1FC03C088E790E002C0D1
S113079088E590E0B6010CC08A2D867859F0A1FE58
S11307A002C08BE201C080E2A7FC8DE2B60190E0BA
S11307B00E941804891438F4B60180E390E00E9482
S11307C018049A94F7CF8A94F301E80DF11D8081FF
S11307D0B60190E00E9418048110F5CF222009F49C
S11307E042CEB60180E290E00E9418042A94F6CF2B
S11307F0F6018681978102C08FEF9FEF2B96E2E18D
S11308000C94CE04FC010590615070400110D8F79F
S1130810809590958E0F9F1F0895FC016150704044
S113082001900110D8F7809590958E0F9F1F089521
S11308300F931F93CF93DF93FB01238121FD03C00B
S11308408FEF9FEF2CC022FF16C046815781248171
S113085035814217530744F4A081B1819D012F5F74
S11308603F4F318320838C93268137812F5F3F4F05
S11308703783268314C08B01EC01FB010084F185CE
S1130880E02D0995892BE1F6D80116968D919C915E
S11308901797019617969C938E931697CE01DF9126
S11308A0CF911F910F910895FA01AA27283051F191
S11308B0203181F1E8946F936E7F6E5F7F4F8F4F8D
S11308C09F4FAF4FB1E03ED0B4E03CD0670F781FEC
S11308D0891F9A1FA11D680F791F8A1F911DA11DD1
S11308E06A0F711D811D911DA11D20D009F468940A
S11308F03F912AE0269F11243019305D3193DEF6B2
S1130900CF010895462F4770405D4193B3E00FD067
S1130910C9F7F6CF462F4F70405D4A3318F0495D52
S113092031FD4052419302D0A9F7EACFB4E0A69535
S11309309795879577956795BA95C9F70097610557
S1130940710508959B01AC010A2E069457954795AD
S113095037952795BA95C9F7620F731F841F951FA2
S1130960A01D08952F923F924F925F926F927F92B3
S11309708F929F92AF92BF92CF92DF92EF92FF92AB
S11309800F931F93CF93DF93CDB7DEB7CA1BDB0B57
S11309900FB6F894DEBF0FBECDBF09942A883988FC
S11309A048885F846E847D848C849B84AA84B98403
S11309B0C884DF80EE80FD800C811B81AA81B9810F
S11309C0CE0FD11D0FB6F894DEBF0FBECDBFED0123
S10909D00895F894FFCF26
S10D09D6FFFFFFFFFFFF2564000090
S9030000FC
